{
    "contractName": "Staking",
    "abi": [
        {
            "inputs": [
                {
                    "internalType": "uint256",
                    "name": "_stakingPeriod",
                    "type": "uint256"
                },
                {
                    "internalType": "uint256",
                    "name": "_totalRewards",
                    "type": "uint256"
                },
                {
                    "internalType": "address",
                    "name": "_stakedTokenAddress",
                    "type": "address"
                }
            ],
            "stateMutability": "nonpayable",
            "type": "constructor"
        },
        {
            "anonymous": false,
            "inputs": [
                {
                    "indexed": true,
                    "internalType": "address",
                    "name": "user",
                    "type": "address"
                },
                {
                    "indexed": false,
                    "internalType": "uint256",
                    "name": "amount",
                    "type": "uint256"
                }
            ],
            "name": "Staked",
            "type": "event"
        },
        {
            "anonymous": false,
            "inputs": [
                {
                    "indexed": true,
                    "internalType": "address",
                    "name": "user",
                    "type": "address"
                },
                {
                    "indexed": false,
                    "internalType": "uint256",
                    "name": "amount",
                    "type": "uint256"
                }
            ],
            "name": "Withdrawn",
            "type": "event"
        },
        {
            "inputs": [
                {
                    "internalType": "address",
                    "name": "_user",
                    "type": "address"
                }
            ],
            "name": "calculateRewards",
            "outputs": [
                {
                    "internalType": "uint256",
                    "name": "",
                    "type": "uint256"
                }
            ],
            "stateMutability": "view",
            "type": "function"
        },
        {
            "inputs": [],
            "name": "distributeRewards",
            "outputs": [],
            "stateMutability": "nonpayable",
            "type": "function"
        },
        {
            "inputs": [
                {
                    "internalType": "address",
                    "name": "_user",
                    "type": "address"
                }
            ],
            "name": "getRewardsBalance",
            "outputs": [
                {
                    "internalType": "uint256",
                    "name": "",
                    "type": "uint256"
                }
            ],
            "stateMutability": "view",
            "type": "function"
        },
        {
            "inputs": [
                {
                    "internalType": "address",
                    "name": "_user",
                    "type": "address"
                }
            ],
            "name": "getStakedBalance",
            "outputs": [
                {
                    "internalType": "uint256",
                    "name": "",
                    "type": "uint256"
                }
            ],
            "stateMutability": "view",
            "type": "function"
        },
        {
            "inputs": [],
            "name": "owner",
            "outputs": [
                {
                    "internalType": "address",
                    "name": "",
                    "type": "address"
                }
            ],
            "stateMutability": "view",
            "type": "function"
        },
        {
            "inputs": [
                {
                    "internalType": "uint256",
                    "name": "_amount",
                    "type": "uint256"
                }
            ],
            "name": "stake",
            "outputs": [],
            "stateMutability": "nonpayable",
            "type": "function"
        },
        {
            "inputs": [
                {
                    "internalType": "address",
                    "name": "",
                    "type": "address"
                }
            ],
            "name": "stakedBalances",
            "outputs": [
                {
                    "internalType": "uint256",
                    "name": "",
                    "type": "uint256"
                }
            ],
            "stateMutability": "view",
            "type": "function"
        },
        {
            "inputs": [],
            "name": "stakedToken",
            "outputs": [
                {
                    "internalType": "contract IERC20",
                    "name": "",
                    "type": "address"
                }
            ],
            "stateMutability": "view",
            "type": "function"
        },
        {
            "inputs": [
                {
                    "internalType": "uint256",
                    "name": "",
                    "type": "uint256"
                }
            ],
            "name": "stakers",
            "outputs": [
                {
                    "internalType": "address",
                    "name": "",
                    "type": "address"
                }
            ],
            "stateMutability": "view",
            "type": "function"
        },
        {
            "inputs": [],
            "name": "stakingPeriod",
            "outputs": [
                {
                    "internalType": "uint256",
                    "name": "",
                    "type": "uint256"
                }
            ],
            "stateMutability": "view",
            "type": "function"
        },
        {
            "inputs": [
                {
                    "internalType": "address",
                    "name": "",
                    "type": "address"
                }
            ],
            "name": "stakingStartTimes",
            "outputs": [
                {
                    "internalType": "uint256",
                    "name": "",
                    "type": "uint256"
                }
            ],
            "stateMutability": "view",
            "type": "function"
        },
        {
            "inputs": [],
            "name": "totalRewards",
            "outputs": [
                {
                    "internalType": "uint256",
                    "name": "",
                    "type": "uint256"
                }
            ],
            "stateMutability": "view",
            "type": "function"
        },
        {
            "inputs": [],
            "name": "withdraw",
            "outputs": [],
            "stateMutability": "nonpayable",
            "type": "function"
        }
    ],
    "bytecode": "608060405234801561000f575f80fd5b5060405161095b38038061095b83398101604081905261002e91610068565b5f8054336001600160a01b031991821617909155600193909355600291909155600380549092166001600160a01b039091161790556100aa565b5f805f6060848603121561007a575f80fd5b83516020850151604086015191945092506001600160a01b038116811461009f575f80fd5b809150509250925092565b6108a4806100b75f395ff3fe608060405234801561000f575f80fd5b50600436106100cb575f3560e01c80638a67f4bf11610088578063a694fc3a11610063578063a694fc3a146101b3578063c03d5b47146101c6578063cc7a262e146101cf578063fd5e6dd1146101e2575f80fd5b80638a67f4bf146101575780638da5cb5b1461016a5780639dedb97d14610194575f80fd5b80630e15561a146100cf5780631460fa87146100eb5780633a02a42d1461010a5780633ccfd60b1461013257806364ab86751461013c5780636f4a2cd01461014f575b5f80fd5b6100d860025481565b6040519081526020015b60405180910390f35b6100d86100f9366004610776565b60046020525f908152604090205481565b6100d8610118366004610776565b6001600160a01b03165f9081526004602052604090205490565b61013a6101f5565b005b6100d861014a366004610776565b610389565b61013a6103e8565b6100d8610165366004610776565b6105ba565b5f5461017c906001600160a01b031681565b6040516001600160a01b0390911681526020016100e2565b6100d86101a2366004610776565b60056020525f908152604090205481565b61013a6101c136600461079c565b6105ca565b6100d860015481565b60035461017c906001600160a01b031681565b61017c6101f036600461079c565b61074e565b335f908152600460205260409020546102555760405162461bcd60e51b815260206004820152601c60248201527f4e6f207374616b656420746f6b656e7320746f2077697468647261770000000060448201526064015b60405180910390fd5b5f61025f33610389565b335f908152600460205260408120549192509061027d9083906107c7565b335f818152600460208181526040808420849055600590915280832092909255600354915163a9059cbb60e01b815290810192909252602482018390529192506001600160a01b039091169063a9059cbb906044016020604051808303815f875af11580156102ee573d5f803e3d5ffd5b505050506040513d601f19601f8201168201806040525081019061031291906107da565b6103505760405162461bcd60e51b815260206004820152600f60248201526e151c985b9cd9995c8819985a5b1959608a1b604482015260640161024c565b60405181815233907f7084f5476618d8e60b11ef0d7d3f06914655adb8793e28ff7f018d4c76d505d59060200160405180910390a25050565b6001600160a01b0381165f9081526005602052604081205481906103ad90426107f9565b6001546001600160a01b0385165f90815260046020526040902054919250906103d790839061080c565b6103e19190610823565b9392505050565b5f546001600160a01b0316331461044f5760405162461bcd60e51b815260206004820152602560248201527f4f6e6c7920746865206f776e65722063616e2064697374726962757465207265604482015264776172647360d81b606482015260840161024c565b5f805b6006548110156104b7575f6006828154811061047057610470610842565b5f9182526020808320909101546001600160a01b031680835260049091526040909120549091506104a190846107c7565b92505080806104af90610856565b915050610452565b505f81116105075760405162461bcd60e51b815260206004820152601860248201527f4e6f207265776172647320746f20646973747269627574650000000000000000604482015260640161024c565b5f5b6006548110156105b6575f6006828154811061052757610527610842565b5f9182526020808320909101546001600160a01b0316808352600490915260409091205490915080156105a1575f8460025483610564919061080c565b61056e9190610823565b6001600160a01b0384165f9081526004602052604081208054929350839290919061059a9084906107c7565b9091555050505b505080806105ae90610856565b915050610509565b5050565b5f6105c482610389565b92915050565b5f81116106275760405162461bcd60e51b815260206004820152602560248201527f5374616b696e6720616d6f756e74206d75737420626520677265617465722074604482015264068616e20360dc1b606482015260840161024c565b6003546040516323b872dd60e01b8152336004820152306024820152604481018390526001600160a01b03909116906323b872dd906064016020604051808303815f875af115801561067b573d5f803e3d5ffd5b505050506040513d601f19601f8201168201806040525081019061069f91906107da565b6106dd5760405162461bcd60e51b815260206004820152600f60248201526e151c985b9cd9995c8819985a5b1959608a1b604482015260640161024c565b335f90815260046020526040812080548392906106fb9084906107c7565b9091555050335f8181526005602052604090819020429055517f9e71bc8eea02a63969f509818f2dafb9254532904319f9dbda79b67bd34a5f3d906107439084815260200190565b60405180910390a250565b6006818154811061075d575f80fd5b5f918252602090912001546001600160a01b0316905081565b5f60208284031215610786575f80fd5b81356001600160a01b03811681146103e1575f80fd5b5f602082840312156107ac575f80fd5b5035919050565b634e487b7160e01b5f52601160045260245ffd5b808201808211156105c4576105c46107b3565b5f602082840312156107ea575f80fd5b815180151581146103e1575f80fd5b818103818111156105c4576105c46107b3565b80820281158282048414176105c4576105c46107b3565b5f8261083d57634e487b7160e01b5f52601260045260245ffd5b500490565b634e487b7160e01b5f52603260045260245ffd5b5f60018201610867576108676107b3565b506001019056fea264697066735822122095b6293939c9bf12378d1ed36af39997a107de490bea890943c5ecab86d0ec8b64736f6c63430008140033",
    "sourcePath": "c:/Users/Jinx/Desktop/staking/contracts/staking.sol",
    "compiler": {
        "name": "solc",
        "version": "0.8.20+commit.a1b79de6"
    },
    "functionHashes": {
        "calculateRewards(address)": "64ab8675",
        "distributeRewards()": "6f4a2cd0",
        "getRewardsBalance(address)": "8a67f4bf",
        "getStakedBalance(address)": "3a02a42d",
        "owner()": "8da5cb5b",
        "stake(uint256)": "a694fc3a",
        "stakedBalances(address)": "1460fa87",
        "stakedToken()": "cc7a262e",
        "stakers(uint256)": "fd5e6dd1",
        "stakingPeriod()": "c03d5b47",
        "stakingStartTimes(address)": "9dedb97d",
        "totalRewards()": "0e15561a",
        "withdraw()": "3ccfd60b"
    },
    "gasEstimates": {
        "creation": {
            "codeDepositCost": "442400",
            "executionCost": "infinite",
            "totalCost": "infinite"
        },
        "external": {
            "calculateRewards(address)": "infinite",
            "distributeRewards()": "infinite",
            "getRewardsBalance(address)": "infinite",
            "getStakedBalance(address)": "2533",
            "owner()": "2380",
            "stake(uint256)": "infinite",
            "stakedBalances(address)": "2493",
            "stakedToken()": "2402",
            "stakers(uint256)": "4699",
            "stakingPeriod()": "2327",
            "stakingStartTimes(address)": "2537",
            "totalRewards()": "2284",
            "withdraw()": "infinite"
        }
    }
}