{
  "_format": "hh-sol-artifact-1",
  "contractName": "Staking",
  "sourceName": "contracts/staking.sol",
  "abi": [
    {
      "inputs": [
        {
          "internalType": "uint256",
          "name": "_stakingPeriod",
          "type": "uint256"
        },
        {
          "internalType": "uint256",
          "name": "_totalRewards",
          "type": "uint256"
        },
        {
          "internalType": "address",
          "name": "_stakedTokenAddress",
          "type": "address"
        }
      ],
      "stateMutability": "nonpayable",
      "type": "constructor"
    },
    {
      "anonymous": false,
      "inputs": [
        {
          "indexed": true,
          "internalType": "address",
          "name": "user",
          "type": "address"
        },
        {
          "indexed": false,
          "internalType": "uint256",
          "name": "amount",
          "type": "uint256"
        }
      ],
      "name": "Staked",
      "type": "event"
    },
    {
      "anonymous": false,
      "inputs": [
        {
          "indexed": true,
          "internalType": "address",
          "name": "user",
          "type": "address"
        },
        {
          "indexed": false,
          "internalType": "uint256",
          "name": "amount",
          "type": "uint256"
        }
      ],
      "name": "Withdrawn",
      "type": "event"
    },
    {
      "inputs": [
        {
          "internalType": "address",
          "name": "_user",
          "type": "address"
        }
      ],
      "name": "calculateRewards",
      "outputs": [
        {
          "internalType": "uint256",
          "name": "",
          "type": "uint256"
        }
      ],
      "stateMutability": "view",
      "type": "function"
    },
    {
      "inputs": [],
      "name": "distributeRewards",
      "outputs": [],
      "stateMutability": "nonpayable",
      "type": "function"
    },
    {
      "inputs": [
        {
          "internalType": "address",
          "name": "_user",
          "type": "address"
        }
      ],
      "name": "getRewardsBalance",
      "outputs": [
        {
          "internalType": "uint256",
          "name": "",
          "type": "uint256"
        }
      ],
      "stateMutability": "view",
      "type": "function"
    },
    {
      "inputs": [
        {
          "internalType": "address",
          "name": "_user",
          "type": "address"
        }
      ],
      "name": "getStakedBalance",
      "outputs": [
        {
          "internalType": "uint256",
          "name": "",
          "type": "uint256"
        }
      ],
      "stateMutability": "view",
      "type": "function"
    },
    {
      "inputs": [],
      "name": "owner",
      "outputs": [
        {
          "internalType": "address",
          "name": "",
          "type": "address"
        }
      ],
      "stateMutability": "view",
      "type": "function"
    },
    {
      "inputs": [
        {
          "internalType": "uint256",
          "name": "_amount",
          "type": "uint256"
        }
      ],
      "name": "stake",
      "outputs": [],
      "stateMutability": "nonpayable",
      "type": "function"
    },
    {
      "inputs": [
        {
          "internalType": "address",
          "name": "",
          "type": "address"
        }
      ],
      "name": "stakedBalances",
      "outputs": [
        {
          "internalType": "uint256",
          "name": "",
          "type": "uint256"
        }
      ],
      "stateMutability": "view",
      "type": "function"
    },
    {
      "inputs": [],
      "name": "stakedToken",
      "outputs": [
        {
          "internalType": "contract IERC20",
          "name": "",
          "type": "address"
        }
      ],
      "stateMutability": "view",
      "type": "function"
    },
    {
      "inputs": [
        {
          "internalType": "uint256",
          "name": "",
          "type": "uint256"
        }
      ],
      "name": "stakers",
      "outputs": [
        {
          "internalType": "address",
          "name": "",
          "type": "address"
        }
      ],
      "stateMutability": "view",
      "type": "function"
    },
    {
      "inputs": [],
      "name": "stakingPeriod",
      "outputs": [
        {
          "internalType": "uint256",
          "name": "",
          "type": "uint256"
        }
      ],
      "stateMutability": "view",
      "type": "function"
    },
    {
      "inputs": [
        {
          "internalType": "address",
          "name": "",
          "type": "address"
        }
      ],
      "name": "stakingStartTimes",
      "outputs": [
        {
          "internalType": "uint256",
          "name": "",
          "type": "uint256"
        }
      ],
      "stateMutability": "view",
      "type": "function"
    },
    {
      "inputs": [],
      "name": "totalRewards",
      "outputs": [
        {
          "internalType": "uint256",
          "name": "",
          "type": "uint256"
        }
      ],
      "stateMutability": "view",
      "type": "function"
    },
    {
      "inputs": [],
      "name": "withdraw",
      "outputs": [],
      "stateMutability": "nonpayable",
      "type": "function"
    }
  ],
  "bytecode": "0x608060405234801561001057600080fd5b5060405161099838038061099883398101604081905261002f9161006a565b60008054336001600160a01b031991821617909155600193909355600291909155600380549092166001600160a01b039091161790556100b0565b60008060006060848603121561007f57600080fd5b83516020850151604086015191945092506001600160a01b03811681146100a557600080fd5b809150509250925092565b6108d9806100bf6000396000f3fe608060405234801561001057600080fd5b50600436106100cf5760003560e01c80638a67f4bf1161008c578063a694fc3a11610066578063a694fc3a146101bc578063c03d5b47146101cf578063cc7a262e146101d8578063fd5e6dd1146101eb57600080fd5b80638a67f4bf1461015e5780638da5cb5b146101715780639dedb97d1461019c57600080fd5b80630e15561a146100d45780631460fa87146100f05780633a02a42d146101105780633ccfd60b1461013957806364ab8675146101435780636f4a2cd014610156575b600080fd5b6100dd60025481565b6040519081526020015b60405180910390f35b6100dd6100fe36600461079b565b60046020526000908152604090205481565b6100dd61011e36600461079b565b6001600160a01b031660009081526004602052604090205490565b6101416101fe565b005b6100dd61015136600461079b565b610399565b6101416103fa565b6100dd61016c36600461079b565b6105d6565b600054610184906001600160a01b031681565b6040516001600160a01b0390911681526020016100e7565b6100dd6101aa36600461079b565b60056020526000908152604090205481565b6101416101ca3660046107c4565b6105e7565b6100dd60015481565b600354610184906001600160a01b031681565b6101846101f93660046107c4565b610771565b3360009081526004602052604090205461025f5760405162461bcd60e51b815260206004820152601c60248201527f4e6f207374616b656420746f6b656e7320746f2077697468647261770000000060448201526064015b60405180910390fd5b600061026a33610399565b33600090815260046020526040812054919250906102899083906107f3565b336000818152600460208181526040808420849055600590915280832092909255600354915163a9059cbb60e01b815290810192909252602482018390529192506001600160a01b039091169063a9059cbb906044016020604051808303816000875af11580156102fe573d6000803e3d6000fd5b505050506040513d601f19601f820116820180604052508101906103229190610806565b6103605760405162461bcd60e51b815260206004820152600f60248201526e151c985b9cd9995c8819985a5b1959608a1b6044820152606401610256565b60405181815233907f7084f5476618d8e60b11ef0d7d3f06914655adb8793e28ff7f018d4c76d505d59060200160405180910390a25050565b6001600160a01b03811660009081526005602052604081205481906103be9042610828565b6001546001600160a01b038516600090815260046020526040902054919250906103e990839061083b565b6103f39190610852565b9392505050565b6000546001600160a01b031633146104625760405162461bcd60e51b815260206004820152602560248201527f4f6e6c7920746865206f776e65722063616e2064697374726962757465207265604482015264776172647360d81b6064820152608401610256565b6000805b6006548110156104cd5760006006828154811061048557610485610874565b60009182526020808320909101546001600160a01b031680835260049091526040909120549091506104b790846107f3565b92505080806104c59061088a565b915050610466565b506000811161051e5760405162461bcd60e51b815260206004820152601860248201527f4e6f207265776172647320746f206469737472696275746500000000000000006044820152606401610256565b60005b6006548110156105d25760006006828154811061054057610540610874565b60009182526020808320909101546001600160a01b0316808352600490915260409091205490915080156105bd576000846002548361057f919061083b565b6105899190610852565b6001600160a01b0384166000908152600460205260408120805492935083929091906105b69084906107f3565b9091555050505b505080806105ca9061088a565b915050610521565b5050565b60006105e182610399565b92915050565b600081116106455760405162461bcd60e51b815260206004820152602560248201527f5374616b696e6720616d6f756e74206d75737420626520677265617465722074604482015264068616e20360dc1b6064820152608401610256565b6003546040516323b872dd60e01b8152336004820152306024820152604481018390526001600160a01b03909116906323b872dd906064016020604051808303816000875af115801561069c573d6000803e3d6000fd5b505050506040513d601f19601f820116820180604052508101906106c09190610806565b6106fe5760405162461bcd60e51b815260206004820152600f60248201526e151c985b9cd9995c8819985a5b1959608a1b6044820152606401610256565b336000908152600460205260408120805483929061071d9084906107f3565b90915550503360008181526005602052604090819020429055517f9e71bc8eea02a63969f509818f2dafb9254532904319f9dbda79b67bd34a5f3d906107669084815260200190565b60405180910390a250565b6006818154811061078157600080fd5b6000918252602090912001546001600160a01b0316905081565b6000602082840312156107ad57600080fd5b81356001600160a01b03811681146103f357600080fd5b6000602082840312156107d657600080fd5b5035919050565b634e487b7160e01b600052601160045260246000fd5b808201808211156105e1576105e16107dd565b60006020828403121561081857600080fd5b815180151581146103f357600080fd5b818103818111156105e1576105e16107dd565b80820281158282048414176105e1576105e16107dd565b60008261086f57634e487b7160e01b600052601260045260246000fd5b500490565b634e487b7160e01b600052603260045260246000fd5b60006001820161089c5761089c6107dd565b506001019056fea264697066735822122092e62747194f4ca71b1fcb99751940aa204d82e6045b9d59ec8417e1cc01724164736f6c63430008140033",
  "linkReferences": {},
  "deployedLinkReferences": {}
}